:020000040800F2
:10000000005000200D01000813010008170100082E
:100010002F010008330100084B0100080000000018
:100020000000000000000000000000006301000864
:1000300067010008000000006B010008D1060008FD
:100040008102000881020008810200088102000884
:100050008102000881020008810200088102000874
:100060008102000881020008810200088102000864
:100070008102000881020008810200088102000854
:100080008102000881020008810200088102000844
:100090008102000881020008810200088102000834
:1000A0008102000881020008810200088102000824
:1000B0008102000881020008810200088102000814
:1000C0008102000881020008810200088102000804
:1000D00081020008810200088102000881020008F4
:1000E000810200088102000881020008000000006F
:1000F0000000000000000000000000000000000000
:1001000000000000000000005FF808F108B500F0F2
:1001100035F800BEFEE71EF0040F0CBFEFF30880B9
:10012000EFF309807146124A104700BEFEE700BE99
:10013000FEE71EF0040F0CBFEFF30880EFF3098019
:1001400071460C4A104700BEFEE71EF0040F0CBFBC
:10015000EFF30880EFF309807146074A104700BEAD
:10016000FEE700BEFEE700BEFEE700BEFEE770470A
:100170002B010008470100085F01000808B500F0E6
:1001800095F82D4B2D4A13602D4A13602D4B2E4AA6
:1001900003E052F8041B43F8041B2C498B42F8D3AC
:1001A000264B1A682A4B9A4200D0FEE7244B1A6865
:1001B000284B9A42F9D1204B274A1360274A1360F3
:1001C000274B02E0002243F8042B264A9342F9D33E
:1001D000214B1B6813B9214B1B6803B1FEE700F0EC
:1001E00071F8214C214BE41AA410002504E01F4BA8
:1001F00053F8253098470135AC42F8DC1C4C1D4BB8
:10020000E41AA410002504E01A4B53F8253098474F
:100210000135AC42F8DC00F033F9174C174BE41A07
:10022000A41004E0013C154B53F824309847002CEF
:10023000F8DC012000F04AF8BABADECA000000205B
:100240002400002000000020E00600082800002014
:100250007856341232547698280000203C00002052
:100260002800002040000020AC020008AC0200087A
:10027000AC020008AC020008AC020008AC020008A6
:0402800000BEFEE7D7
:10028400E00600080000002028000020E006000826
:1002940000000000000000002800002040000020B2
:0802A400000000000000000052
:1002AC0008B500F075F8024A024B9A6008BD00BF11
:1002BC000000000800ED00E008B500F091F808BD62
:1002CC00FEE7000082B00023019300932C4A1368D0
:1002DC0043F4803313602A4B1B6803F40033009300
:1002EC00019B01330193009B1BB9019BB3F5A06FDC
:1002FC00F1D1234B1B6813F4003F06D0012300936C
:10030C00009B012B04D002B0704700230093F7E749
:10031C001C4B1A6842F010021A601A6822F007028D
:10032C001A601A6842F004021A60A3F580535A68E6
:10033C005A605A685A605A6842F480625A605A6825
:10034C0022F47C125A605A6842F4E8125A601A6815
:10035C0042F080721A600A4B1B6813F0007FFAD0CF
:10036C00074B5A6822F003025A605A6842F00202A4
:10037C005A60034B5B6803F00C03082BF9D1C2E7FE
:10038C00001002400020024008B5FFF79BFF08BD9B
:10039C0008B5104B1A6842F001021A6059680E4AEF
:1003AC000A405A601A6822F0847222F480321A6071
:1003BC001A6822F480221A605A6822F4FE025A60EB
:1003CC004FF41F029A60FFF7DFFF044B4FF00062FF
:1003DC009A6008BD001002400000FFF800ED00E03C
:1003EC001F4B5B6803F00C03042B15D0082B17D0A4
:1003FC001BB11C4B1C4A1A6002E01A4B1A4A1A60B9
:10040C00174B5B68C3F30313184AD35CDAB2154974
:10041C000B68D3400B607047124B134A1A60EFE71E
:10042C000F4A53685268C3F38343023312F4803F7C
:10043C0005D10F4A02FB03F30A4A1360E0E7084AAE
:10044C00526812F4003F05D0094A02FB03F3054A37
:10045C001360D5E7044A02FB03F3024A1360CFE7AB
:10046C00001002401400002000127A00040000204A
:10047C0000093D00864A936943F010039361854B54
:10048C004FF400511961586840F4A000586059614C
:10049C00936943F0080393617F4B586820F47020F4
:1004AC005860586840F400305860586820F4700068
:1004BC005860586840F400105860586820F070601C
:1004CC005860586840F0007058604FF480501861C4
:1004DC0019614FF480411961936943F004039361EE
:1004EC006E4B08201861196841F4A04119605861DD
:1004FC0010201861196841F4A0211960586120205E
:10050C001861196841F4A00119605861936943F4AA
:10051C0000639361936943F400639361604B1B68C0
:10052C00604AA2FB03239B09013BB3F1807F09D2F4
:10053C005D4A53605D4BF02183F8231000239360D8
:10054C0007231360524AD36943F40013D361584B09
:10055C001968584A11601B6803F5FA73564A136000
:10056C000DE04C4A4FF40051116103F26C73514A87
:10057C001360514B1B684E4A1268934212D04D4B7C
:10058C001B684B4A12689342F3D1424AD26812F468
:10059C00005FE6D03F4A4FF4005151616433454A45
:1005AC001360E6E73C4A4FF4E0415161A2F58062EA
:1005BC0038211161414A1278414931F812100B442B
:1005CC003D490B60042A58D8DFE802F0030F1E2ABD
:1005DC0049003A4B01221A702F4B4FF480421A619A
:1005EC00A3F5806320225A61C9E7344B02221A70AA
:1005FC00294B4FF480421A614FF400521A61A3F553
:10060C00806308225A61BAE72C4B03221A70224BE2
:10061C004FF480521A61A3F5806308225A61AEE749
:10062C00274B9B7A13F0010F0DD11B4A4FF48051CD
:10063C005161092B0CD0224A937A01339372174BD8
:10064C0008225A619BE7144A4FF480511161F0E77C
:10065C001A4B04221A701A4B02229A72EBE7174BB0
:10066C0000221A700C4B4FF400521A61A3F58063F0
:10067C0008225A6110225A6181E7074A4FF4E0417F
:10068C00116103F51C5310330B4A136077E700BF5D
:10069C000010024000100140000C01400008014015
:1006AC0014000020D34D621010E000E000ED00E0DB
:1006BC002C000020300000203800002034000020E6
:1006CC0018000020024A136801331360704700BF02
:0406DC002C000020CE
:1006E00078563412000000000000000001020304EC
:1006F0000607080900A24A04E02ED007581BF4019F
:08070000B80B02003254769898
:040000050800017D71
:00000001FF
