:020000040800F2
:10000000005000200D01000815010008190100082A
:1000100031010008350100084D0100080000000012
:100020000000000000000000000000006501000862
:1000300069010008000000006D010008410400088B
:100040009502000895020008950200089502000834
:100050009502000895020008950200089502000824
:100060009502000895020008950200089502000814
:100070009502000895020008950200089502000804
:1000800095020008950200089502000895020008F4
:1000900095020008950200089502000895020008E4
:1000A00095020008950200089502000895020008D4
:1000B00095020008950200089502000895020008C4
:1000C00095020008950200089502000895020008B4
:1000D00095020008950200089502000895020008A4
:1000E0009502000895020008950200080000000033
:1000F0000000000000000000000000000000000000
:1001000000000000000000005FF808F108B500F0F2
:1001100037F800BF00BEFEE71EF0040F0CBFEFF380
:100120000880EFF309807146124A104700BEFEE7CF
:1001300000BEFEE71EF0040F0CBFEFF30880EFF3E4
:10014000098071460C4A104700BEFEE71EF0040FFE
:100150000CBFEFF30880EFF309807146074A1047A0
:1001600000BEFEE700BEFEE700BEFEE700BEFEE703
:10017000704700002D0100084901000861010008D6
:1001800008B500F09DF8314A314B3249324C3348C2
:100190009A42216001600DD2314D013B29469B1AE4
:1001A00023F0030304332B4451F8045B994242F8D3
:1001B000045BF9D122682B4B9A4200D0FEE702681B
:1001C000294B9A42FAD1294A294B2249294C2A48DB
:1001D0009A42216001600BD211460025013B9B1A17
:1001E00023F003030433134441F8045B9942FBD129
:1001F00023680BB9046804B1FEE7204E204D00F0DF
:100200006BF8761BB61003E055F8043B98470134B1
:10021000A642F9DC1B4D1C4C00262D1BAD1003E043
:1002200054F8043B98470136B542F9DC174D184C99
:1002300000F0B2F9641BA41003E0013C55F824302F
:100240009847002CF9DC012000F048F8000000205D
:1002500028000020BABADECA0000002024000020D6
:10026000140B000878563412325476982800002077
:10027000680000202800002064000020C002000860
:10028000C0020008C0020008C0020008C002000846
:08029000C002000800BEFEE7F9
:10029800140B00080000002028000020140B0008A0
:1002A8000000000000000000280000206800002076
:0802B80000000000000000003E
:1002C00008B500F00DF8024A024B9A6008BD00BF65
:1002D0000000000800ED00E000F084B8FEE700BF79
:1002E00030B400244FF41F053A4B3B4A196882B0E2
:1002F00041F001011960596818460A405A601A68AD
:1003000022F0847222F480321A601A6822F4802269
:100310001A605A6822F4FE025A609D6000940194AB
:100320001A6842F480321A6003E0009BB3F5A06FB4
:1003300009D0036803F400330193009B0133009359
:10034000019B002BF1D0234B1B6813F4003318BF23
:1003500001230193019B012B06D04FF000621F4B3C
:100360009A6002B030BC70471D491A4B08681A46A3
:1003700040F010000860086820F007000860086876
:1003800040F004000860596859605968596059681C
:1003900041F480615960596821F47C1159605968B1
:1003A00041F4E8115960196841F0807119601368CF
:1003B0009B01FCD55368074923F00303536053683E
:1003C00043F0020353604B6803F00C03082BFAD18F
:1003D000C3E700BF001002400000FFF800ED00E09E
:1003E00000200240114A536803F00C03082B0AD086
:1003F0000F4B0E4A0F4852680F49C2F30312825C3A
:10040000D3400B60704753685168C3F38343C903FB
:1004100003F1020306D55268920303D4044A02FB97
:1004200003F3E6E7054A02FB03F3E2E700100240AC
:1004300000127A00040000201400002000093D0092
:10044000024A136801331360704700BF4C0000205C
:1004500030B44FF6FF7000241A4D1B4AA9691B4B9C
:1004600041F01C01A9611A4DD060DC60E8601068A1
:1004700000F07F411160106840F0661141F4CC40FB
:100480001060116821F07F401060116811605A6897
:1004900022F07F6020F4702159605A6842F00870A1
:1004A00040F4003159601A681C601C681C606B685D
:1004B00023F470026A60686840F4C001696030BC6F
:1004C000704700BF0010024000080140000C0140CE
:1004D000001001402A4B2B491A680868824200D05C
:1004E000704770B44FF4E0463820274D274C6E61BA
:1004F0002678274D274935F816C0086162441A60EE
:10050000042E33D8DFE806F029241F0E030000264E
:100510004FF4005018221C4D1E49267028614A6174
:1005200070BC70474FF48051AB7A174ED80754BF58
:1005300071613161092B15D00133DBB20824154AF2
:10054000AB725461ECE703264FF480500822E2E7D7
:1005500002264FF4C0400822DDE701264FF4804018
:100560002022D8E7042003232070E7E74FF4E04679
:1005700002F51C50044C103026611860D0E700BF13
:10058000600000204C000020000C01405C000020B6
:10059000180000200008014020254FF400449A4E26
:1005A0002DE98848FFF754FFF269984B42F4001791
:1005B000F7611E68964926F07F421A601F68084658
:1005C00047F06E461E601A6822F470071F601E68AE
:1005D00046F400121A601D610C6001E0856915B1D6
:1005E00041690029FAD100204FF6C077B4262624AD
:1005F000874B854D18605A683A405A60596841F0F7
:1006000024075F60DE611C621E68824C46F00102B6
:100610001A60AB69804943F40067AF61AE6946F484
:100620000062AA612568A1FB0524A3095F1EB7F13A
:10063000807F08D2F0260721784A794D576085F8E7
:10064000236090601160DFF8F4A1DFF8F4E1DAF8DC
:100650000000DAF80030DAF8007003F2EE22714D93
:10066000714C724B07F59661C830714FDFF8D49129
:10067000DFF89CB16F4ECEF800202860216003F1B6
:10068000140813E0DAF8003083420BD14FF4005124
:10069000F26812F4005F15BF643000F26C70716193
:1006A00031612860FFF716FF21682868DAF800201A
:1006B0008A42E7D13B68032B00F29880DFE813F011
:1006C00057018501C4000400DBF8002042F4807368
:1006D000CBF80030DBF81420D307FBD5EE23CBF8A2
:1006E0001030DBF814209207FBD5F623DBF8182036
:1006F000CBF81030DBF814205307FBD5DBF80030C3
:1007000043F40072CBF80020DBF800309A05FBD4EC
:10071000DBF8002042F48073CBF80030DBF81420C3
:10072000D307FBD5EF22DBF8003043F48063CBF82E
:100730000030CBF81020DBF814209207FBD5DBF853
:100740001830DBF8003023F48062CBF80020DBF8AF
:10075000003043F40062CBF80020DBF814305B0675
:10076000FBD5DBF81020D3B2334A5370DBF80030EE
:1007700043F40072CBF80020DBF814305A06FBD5A6
:10078000DBF81020D3B22C4A1370DBF800309B0545
:10079000FBD4DBF8002042F48073CBF80030DBF8A8
:1007A0001420D207FBD5EE23CBF81030DBF8142051
:1007B0009307FBD5F423DBF81820CBF81030DBF8D7
:1007C00014201206FBD52E23CBF81030DBF81420B2
:1007D0005307FBD5DBF8003043F40072CBF8002060
:1007E000DBF800309A05FBD402223A60B9F800E049
:1007F00001F57A71BEF57A7F08BF4FF0000E2160D7
:1008000008BFA9F800E03DE700100240000C0140DD
:100810000054004014000020D34D621010E000E0AE
:1008200000ED00E050000020580000202C000020C7
:100830004800002000100140440000204C0000202F
:100840006000002054000020DBF8003043F4807288
:10085000CBF80020DBF81430DB07FBD5EE22CBF819
:100860001020DBF814309A07FBD5F623DBF81820AC
:10087000CBF81030DBF814205307FBD5DBF8003041
:1008800043F40072CBF80020DBF800309A05FBD46B
:10089000DBF8002042F48073CBF80030DBF8142042
:1008A000D307FBD5EF22DBF8003043F48063CBF8AD
:1008B0000030CBF81020DBF814209207FBD5DBF8D2
:1008C0001830DBF8003023F48062CBF80020DBF82E
:1008D000003043F40062CBF80020DBF814305B06F4
:1008E000FBD5DBF81020D3B2884A5370DBF8003018
:1008F00043F40072CBF80020DBF814305A06FBD525
:10090000DBF81020D3B2814A1370DBF800309B056E
:10091000FBD4DBF8002042F48073CBF80030DBF826
:100920001420D207FBD5EE23CBF81030DBF81420CF
:100930009307FBD5F423DBF81820CBF81030DBF855
:1009400014201206FBD5F423CBF81030DBF814206A
:100950005307FBD5DBF8003043F40072CBF80020DE
:10096000DBF800309A05FBD403223A603EE7DBF85F
:10097000002042F48073CBF80030DBF81420D3075A
:10098000FBD5EE23CBF81030DBF814209207FBD513
:10099000E023DBF81820CBF81030DBF81420130626
:1009A000FBD5B623CBF81030DBF814205207FBD56B
:1009B000DBF8003043F40072CBF80020DBF80030A5
:1009C0009B05FBD401223A6010E7DBF8003043F4CA
:1009D0008072CBF80020DBF81430DA07FBD5EE226A
:1009E000CBF81020DBF814309B07FBD5BF23DBF8D6
:1009F0001820CBF81030DBF814205207FBD5DBF8B9
:100A0000003043F40072CBF80020DBF800309B0587
:100A1000FBD4DBF8002042F48073CBF80030DBF825
:100A20001420D207FBD5EF22DBF8003043F48063BB
:100A3000CBF80030CBF81020DBF814209307FBD55F
:100A4000DBF81830324BDBF814205206FBD5DBF80C
:100A500010205FFA82FC03F801CB4345F3D1DBF8A9
:100A6000003023F48062CBF80020DBF8003043F440
:100A70000062CBF80020DBF814305B06FBD5DBF816
:100A80001020D3B2224A1375DBF8003043F4007211
:100A9000CBF80020DBF814305A06FBD5DBF8102029
:100AA000D3B21B4A5375DBF800309B05FBD40222FE
:100AB000DBF800303A6043F48072CBF80020DBF8BA
:100AC0001430DA07FBD5EE22CBF81020DBF8143017
:100AD0009B07FBD5F423DBF81820CBF81030DBF8AC
:100AE00014201206FBD52E23CBF81030DBF814208F
:100AF0005307FBD5DBF8003043F40072CBF800203D
:100B0000DBF800309A05FBD470E600BF44000020FB
:040B10002C00002095
:100B140078563412000000000000000001020304B3
:100B24000607080900A24A04E02ED007581BF40166
:080B3400B80B02003254769860
:04000005080001816D
:00000001FF
