:020000040800F2
:10000000005000200D01000815010008190100082A
:1000100031010008350100084D0100080000000012
:100020000000000000000000000000006501000862
:1000300069010008000000006D01000805060008C5
:100040009502000895020008950200089502000834
:100050009502000895020008950200089502000824
:100060009502000895020008950200089502000814
:100070009502000895020008950200089502000804
:1000800095020008950200089502000895020008F4
:1000900095020008950200089502000895020008E4
:1000A00095020008950200089502000895020008D4
:1000B00095020008950200089502000895020008C4
:1000C00095020008950200089502000895020008B4
:1000D00095020008950200089502000895020008A4
:1000E0009502000895020008950200080000000033
:1000F0000000000000000000000000000000000000
:1001000000000000000000005FF808F108B500F0F2
:1001100037F800BF00BEFEE71EF0040F0CBFEFF380
:100120000880EFF309807146124A104700BEFEE7CF
:1001300000BEFEE71EF0040F0CBFEFF30880EFF3E4
:10014000098071460C4A104700BEFEE71EF0040FFE
:100150000CBFEFF30880EFF309807146074A1047A0
:1001600000BEFEE700BEFEE700BEFEE700BEFEE703
:10017000704700002D0100084901000861010008D6
:1001800008B500F09DF8314A314B3249324C3348C2
:100190009A42216001600DD2314D013B29469B1AE4
:1001A00023F0030304332B4451F8045B994242F8D3
:1001B000045BF9D122682B4B9A4200D0FEE702681B
:1001C000294B9A42FAD1294A294B2249294C2A48DB
:1001D0009A42216001600BD211460025013B9B1A17
:1001E00023F003030433134441F8045B9942FBD129
:1001F00023680BB9046804B1FEE7204E204D00F0DF
:100200006BF8761BB61003E055F8043B98470134B1
:10021000A642F9DC1B4D1C4C00262D1BAD1003E043
:1002200054F8043B98470136B542F9DC174D184C99
:1002300000F006F9641BA41003E0013C55F82430DB
:100240009847002CF9DC012000F048F8000000205D
:1002500028000020BABADECA0000002024000020D6
:10026000140600087856341232547698280000207C
:1002700040000020280000203C000020C0020008B0
:10028000C0020008C0020008C0020008C002000846
:08029000C002000800BEFEE7F9
:1002980014060008000000202800002014060008AA
:1002A800000000000000000028000020400000209E
:0802B80000000000000000003E
:1002C00008B500F00DF8024A024B9A6008BD00BF65
:1002D0000000000800ED00E000F084B8FEE700BF79
:1002E00030B400244FF41F053A4B3B4A196882B0E2
:1002F00041F001011960596818460A405A601A68AD
:1003000022F0847222F480321A601A6822F4802269
:100310001A605A6822F4FE025A609D6000940194AB
:100320001A6842F480321A6003E0009BB3F5A06FB4
:1003300009D0036803F400330193009B0133009359
:10034000019B002BF1D0234B1B6813F4003318BF23
:1003500001230193019B012B06D04FF000621F4B3C
:100360009A6002B030BC70471D491A4B08681A46A3
:1003700040F010000860086820F007000860086876
:1003800040F004000860596859605968596059681C
:1003900041F480615960596821F47C1159605968B1
:1003A00041F4E8115960196841F0807119601368CF
:1003B0009B01FCD55368074923F00303536053683E
:1003C00043F0020353604B6803F00C03082BFAD18F
:1003D000C3E700BF001002400000FFF800ED00E09E
:1003E00000200240114A536803F00C03082B0AD086
:1003F0000F4B0E4A0F4852680F49C2F30312825C3A
:10040000D3400B60704753685168C3F38343C903FB
:1004100003F1020306D55268920303D4044A02FB97
:1004200003F3E6E7054A02FB03F3E2E700100240AC
:1004300000127A00040000201400002000093D0092
:100440004FF6FF7600256249624A8C69624B634829
:100450002DE9804844F01C078F61D660DD60C660DE
:1004600014685F4E04F07F471760146844F0661705
:1004700047F4CC441460176827F07F441460176871
:10048000584C17605A6822F07F6727F470225A6030
:100490005F6847F0087848F400325A601A681D60B7
:1004A0001F681F60436823F470024260476847F486
:1004B000C0034360886940F400628A618F6947F431
:1004C00000638B613168A4FB0126B409671EB7F194
:1004D000807F08D2F0230721434A4448576080F8C0
:1004E0002330956011604FF400564FF4E0484FF010
:1004F000380942F2107B3E4BDFF800C11968DFF883
:1005000000E11C683B4D3C4A04F5FA70CCF8001041
:100510009EF80AA02D78314C2F4FDFF8B8C010603C
:100520001A688A4207D1E268920447BF6661643163
:10053000266101F26C711A688242F1D13EF81520F1
:10054000C7F814801044CCF81090042D3BD8DFE895
:1005500005F03229210C0300082510223E61CCF859
:100560001450CCF814200025DAE74FF480521AF02A
:10057000010F0CBF7A613A610822BAF1090F19BF65
:100580000AF1010A5FFA8AFA4FF0030A0425CCF84F
:100590001420C5E74FF4805508223D61CCF81420A3
:1005A0000325BDE74FF4804508223D613E610225E9
:1005B000CCF81420B4E74FF4804520223D61CCF8FC
:1005C00014200125ACE7C7F810805844A8E700BF05
:1005D0000010024000080140000C014000100140E2
:1005E00014000020D34D621010E000E000ED00E0A8
:1005F0002C000020340000203800002030000020B3
:1006000018000020024A136801331360704700BFCE
:040610002C0000209A
:1006140078563412000000000000000001020304B8
:100624000607080900A24A04E02ED007581BF4016B
:08063400B80B02003254769865
:04000005080001816D
:00000001FF
