:020000040800F2
:10000000005000200D01000815010008190100082A
:1000100031010008350100084D0100080000000012
:100020000000000000000000000000006501000862
:1000300069010008000000006D0100084504000887
:100040009502000895020008950200089502000834
:100050009502000895020008950200089502000824
:100060009502000895020008950200089502000814
:100070009502000895020008950200089502000804
:1000800095020008950200089502000895020008F4
:1000900095020008950200089502000895020008E4
:1000A00095020008950200089502000895020008D4
:1000B00095020008950200089502000895020008C4
:1000C00095020008950200089502000895020008B4
:1000D00095020008950200089502000895020008A4
:1000E0009502000895020008950200080000000033
:1000F0000000000000000000000000000000000000
:1001000000000000000000005FF808F108B500F0F2
:1001100037F800BF00BEFEE71EF0040F0CBFEFF380
:100120000880EFF309807146124A104700BEFEE7CF
:1001300000BEFEE71EF0040F0CBFEFF30880EFF3E4
:10014000098071460C4A104700BEFEE71EF0040FFE
:100150000CBFEFF30880EFF309807146074A1047A0
:1001600000BEFEE700BEFEE700BEFEE700BEFEE703
:10017000704700002D0100084901000861010008D6
:1001800008B500F09FF8314A314B3249324C3348C0
:100190009A42216001600DD2314D013B29469B1AE4
:1001A00023F0030304332B4451F8045B994242F8D3
:1001B000045BF9D122682B4B9A4200D0FEE702681B
:1001C000294B9A42FAD1294A294B2249294C2A48DB
:1001D0009A42216001600BD211460025013B9B1A17
:1001E00023F003030433134441F8045B9942FBD129
:1001F00023680BB9046804B1FEE7204E204D00F0DF
:100200006DF8761BB61003E055F8043B98470134AF
:10021000A642F9DC1B4D1C4C00262D1BAD1003E043
:1002200054F8043B98470136B542F9DC174D184C99
:1002300000F03CFA641BA41003E0013C55F82430A4
:100240009847002CF9DC012000F04AF8000000205B
:1002500028000020BABADECA0000002024000020D6
:10026000580A000878563412325476982800002034
:10027000740000202800002070000020C002000848
:10028000C0020008C4020008C0020008C40200083E
:08029000C402000800BEFEE7F5
:10029800580A00080000002028000020580A00081A
:1002A800000000000000000028000020740000206A
:0C02B8000000000000000000150A000813
:1002C40008B500F00DF8024A024B9A6008BD00BF61
:1002D4000000000800ED00E000F084B8FEE700BF75
:1002E40030B400244FF41F053A4B3B4A196882B0DE
:1002F40041F001011960596818460A405A601A68A9
:1003040022F0847222F480321A601A6822F4802265
:100314001A605A6822F4FE025A609D6000940194A7
:100324001A6842F480321A6003E0009BB3F5A06FB0
:1003340009D0036803F400330193009B0133009355
:10034400019B002BF1D0234B1B6813F4003318BF1F
:1003540001230193019B012B06D04FF000621F4B38
:100364009A6002B030BC70471D491A4B08681A469F
:1003740040F010000860086820F007000860086872
:1003840040F0040008605968596059685960596818
:1003940041F480615960596821F47C1159605968AD
:1003A40041F4E8115960196841F0807119601368CB
:1003B4009B01FCD55368074923F00303536053683A
:1003C40043F0020353604B6803F00C03082BFAD18B
:1003D400C3E700BF001002400000FFF800ED00E09A
:1003E40000200240114A536803F00C03082B0AD082
:1003F4000F4B0E4A0F4852680F49C2F30312825C36
:10040400D3400B60704753685168C3F38343C903F7
:1004140003F1020306D55268920303D4044A02FB93
:1004240003F3E6E7054A02FB03F3E2E700100240A8
:1004340000127A00040000201400002000093D008E
:10044400024A136801331360704700BF580000204C
:1004540030B44FF6FF7000241A4D1B4AA9691B4B98
:1004640041F01C01A9611A4DD060DC60E86010689D
:1004740000F07F411160106840F0661141F4CC40F7
:100484001060116821F07F401060116811605A6893
:1004940022F07F6020F4702159605A6842F008709D
:1004A40040F4003159601A681C601C681C606B6859
:1004B40023F470026A60686840F4C001696030BC6B
:1004C400704700BF0010024000080140000C0140CA
:1004D400001001402A4B2B491A680868824200D058
:1004E400704770B44FF4E0463820274D274C6E61B6
:1004F4002678274D274935F816C0086162441A60EA
:10050400042E33D8DFE806F029241F0E030000264A
:100514004FF4005018221C4D1E49267028614A6170
:1005240070BC70474FF48051AB7A174ED80754BF54
:1005340071613161092B15D00133DBB20824154AEE
:10054400AB725461ECE703264FF480500822E2E7D3
:1005540002264FF4C0400822DDE701264FF4804014
:100564002022D8E7042003232070E7E74FF4E04675
:1005740002F51C50044C103026611860D0E700BF0F
:100584006C00002058000020000C0140680000208E
:100594001800002000080140F0B4002380244269C0
:1005A4008AB054610193019D322D05D0019E01361C
:1005B4000196019F322FF9D14024006826464461F8
:1005C400802708240025CB074CBF17615761089585
:1005D400089B322B05D0089B01330893089B322BD0
:1005E400F9D106610995099B322B05D0099B01338A
:1005F4000993099B322BF9D1013C14F0FF044661A5
:100604004FEA5101DFD107940799322905D0079E9B
:1006140001360796079F322FF9D1802500231561F3
:100624000493049C142C05D0049901310491049E74
:10063400142EF9D14027002507610595059B322B1F
:1006440005D0059C0134059405993229F9D1402639
:1006540080270025466157610695069B322B05D0FD
:10066400069C0134069406993229F9D140260027C4
:10067400066102970298322805D0029D0135029541
:10068400029B322BF9D18024002114610391039A37
:10069400642A05D0039E01360396039F642FF9D183
:1006A4000AB0F0BC704700BF2DE9804891B0FFF755
:1006B400CFFE40248020384F89217B693A68FD6849
:1006C40014611861166826F070603E691060106845
:1006D400354340EA056515601A687D6A22F070406A
:1006E4003E6A18601A682E4342EA06761E6038464F
:1006F400FFF752FF2146294C3846FFF74DFFA36907
:10070400274F43F40060A061A569264945F40062BF
:10071400A2613E68A1FB0624A7097B1EB3F1807F7A
:100724000AD24FF0F008002007211F4D1F4A6B60CA
:1007340082F82380A8602960DFF888901C48D9F8E3
:100744000060D9F80070D9F800301A4D1A4A07F53C
:10075400FA7103F57A732E604024184E0160136019
:1007640003E0FFF7B7FE144A1368D9F800709F42FC
:100774002AD01048D9F8001007688F42F1D1104DE3
:100784004FF40050EA6812F4005F00F02E816861B3
:10079400084D64372F60E4E72C000020001002406D
:1007A40014000020D34D621010E000E000ED00E0E2
:1007B4006C0000205C00002064000020CDCCCCCC78
:1007C40000100140580000204FF0C30E8020002389
:1007D400894F8A4AB7F800C051690CF1010A1268BE
:1007E400A7F800A0A6FB0C754861EF08099307EB76
:1007F400870BDDF824A0ACEB4B08814F1FFA88F57A
:10080400BAF1320F17F8058005D0099D0135099515
:10081400099F322FF9D1F346082554611BF0010FCB
:1008240014BF086148610E93DDF838A0BAF1320FA5
:100834000AD0DDF838A00AF1010ACDF838A0DDF8B5
:1008440038A0BAF1320FF4D114610F93DDF83CA053
:10085400BAF1320F0AD0DDF83CA00AF1010ACDF852
:100864003CA0DDF83CA0BAF1320FF4D1013D15F003
:10087400FF055461CBF3470BD0D10D950D9F322F5B
:1008840005D00D9D01350D950D9F322FF9D10861CD
:100894000A930A9D142D05D00A9F01370A970A9DD1
:1008A400142DF9D114610B930B9F322F05D00B9D9E
:1008B40001350B950B9F322FF9D1546148610C938C
:1008C4000C9D322D05D00C9F01370C970C9D322DB9
:1008D400F9D1082718F0010F14BF08614861079384
:1008E400DDF81CA0BAF1320F0AD0DDF81CB00BF110
:1008F400010ACDF81CA0DDF81CB0BBF1320FF4D115
:1009040014610893DDF820A0BAF1320F0AD0DDF8A3
:1009140020B00BF1010ACDF820A0DDF820B0BBF126
:10092400320FF4D1013F17F0FF0754614FEA580822
:10093400D0D10697069D322D05D0069F0137069724
:10094400069D322DF9D108610393039F142F05D01E
:10095400039D01350395039F142FF9D1146104936A
:10096400049D322D05D0049F01370497049D322D38
:10097400F9D1546148610593059F322F05D0059D37
:1009840001350595059F322FF9D114610193019D1D
:10099400322D05D0019F01370197019D322DF9D1E8
:1009A40008610293029F642F05D0029D01350295D0
:1009B400029F642FF9D1A6FB0C570EF1FF355FFAA5
:1009C40085FEBEF1BF0F4FEAD70C7FF40BAF0A4B85
:1009D4001888B0F57A7F02D10021074A1180094FA7
:1009E4003D6805F57A733B60C3E607F26C7306490C
:1009F400064F38610B60B4E6600000202C00002034
:100A0400480A0008640000205C0000200010014037
:100A140030B440F20525042200240221074B084883
:100A24001D855C609C61186058619A601A61DA6186
:100A34005A62D960196230BC704700BF2C00002094
:100A4400000C01403F065B4F666D7D077F6F777C2E
:040A5400395E79711D
:100A58007856341200000000000000000102030470
:100A68000607080900A24A04E02ED007581BF40123
:080A7800B80B0200325476981D
:04000005080001816D
:00000001FF
