:020000040800F2
:10000000005000200D01000813010008170100082E
:100010002F010008330100084B0100080000000018
:100020000000000000000000000000006301000864
:1000300067010008000000006B010008910600083D
:100040008102000881020008810200088102000884
:100050008102000881020008810200088102000874
:100060008102000881020008810200088102000864
:100070008102000881020008810200088102000854
:100080008102000881020008810200088102000844
:100090008102000881020008810200088102000834
:1000A0008102000881020008810200088102000824
:1000B0008102000881020008810200088102000814
:1000C0008102000881020008810200088102000804
:1000D00081020008810200088102000881020008F4
:1000E000810200088102000881020008000000006F
:1000F0000000000000000000000000000000000000
:1001000000000000000000005FF808F108B500F0F2
:1001100035F800BEFEE71EF0040F0CBFEFF30880B9
:10012000EFF309807146124A104700BEFEE700BE99
:10013000FEE71EF0040F0CBFEFF30880EFF3098019
:1001400071460C4A104700BEFEE71EF0040F0CBFBC
:10015000EFF30880EFF309807146074A104700BEAD
:10016000FEE700BEFEE700BEFEE700BEFEE770470A
:100170002B010008470100085F01000808B500F0E6
:1001800095F82D4B2D4A13602D4A13602D4B2E4AA6
:1001900003E052F8041B43F8041B2C498B42F8D3AC
:1001A000264B1A682A4B9A4200D0FEE7244B1A6865
:1001B000284B9A42F9D1204B274A1360274A1360F3
:1001C000274B02E0002243F8042B264A9342F9D33E
:1001D000214B1B6813B9214B1B6803B1FEE700F0EC
:1001E00071F8214C214BE41AA410002504E01F4BA8
:1001F00053F8253098470135AC42F8DC1C4C1D4BB8
:10020000E41AA410002504E01A4B53F8253098474F
:100210000135AC42F8DC00F033F9174C174BE41A07
:10022000A41004E0013C154B53F824309847002CEF
:10023000F8DC012000F04AF8BABADECA000000205B
:100240002400002000000020A00600082800002054
:100250007856341232547698280000203C00002052
:100260002800002040000020AC020008AC0200087A
:10027000AC020008AC020008AC020008AC020008A6
:0402800000BEFEE7D7
:10028400A00600080000002028000020A0060008A6
:1002940000000000000000002800002040000020B2
:0802A400000000000000000052
:1002AC0008B500F075F8024A024B9A6008BD00BF11
:1002BC000000000800ED00E008B500F091F808BD62
:1002CC00FEE7000082B00023019300932C4A1368D0
:1002DC0043F4803313602A4B1B6803F40033009300
:1002EC00019B01330193009B1BB9019BB3F5A06FDC
:1002FC00F1D1234B1B6813F4003F06D0012300936C
:10030C00009B012B04D002B0704700230093F7E749
:10031C001C4B1A6842F010021A601A6822F007028D
:10032C001A601A6842F004021A60A3F580535A68E6
:10033C005A605A685A605A6842F480625A605A6825
:10034C0022F47C125A605A6842F4E8125A601A6815
:10035C0042F080721A600A4B1B6813F0007FFAD0CF
:10036C00074B5A6822F003025A605A6842F00202A4
:10037C005A60034B5B6803F00C03082BF9D1C2E7FE
:10038C00001002400020024008B5FFF79BFF08BD9B
:10039C0008B5104B1A6842F001021A6059680E4AEF
:1003AC000A405A601A6822F0847222F480321A6071
:1003BC001A6822F480221A605A6822F4FE025A60EB
:1003CC004FF41F029A60FFF7DFFF044B4FF00062FF
:1003DC009A6008BD001002400000FFF800ED00E03C
:1003EC001F4B5B6803F00C03042B15D0082B17D0A4
:1003FC001BB11C4B1C4A1A6002E01A4B1A4A1A60B9
:10040C00174B5B68C3F30313184AD35CDAB2154974
:10041C000B68D3400B607047124B134A1A60EFE71E
:10042C000F4A53685268C3F38343023312F4803F7C
:10043C0005D10F4A02FB03F30A4A1360E0E7084AAE
:10044C00526812F4003F05D0094A02FB03F3054A37
:10045C001360D5E7044A02FB03F3024A1360CFE7AB
:10046C00001002401400002000127A00040000204A
:10047C0000093D00764A936943F010039361754B74
:10048C004FF400511961586840F4A000586059614C
:10049C00936943F0080393616F4B586820F4702004
:1004AC005860586840F400305860586820F4700068
:1004BC005860586840F400105860586820F070601C
:1004CC005860586840F0007058604FF480501861C4
:1004DC0019614FF480411961936943F004039361EE
:1004EC005E4B01201861196841F0050119605861D3
:1004FC0008201861196841F4A0411960586193698A
:10050C0043F400639361936943F400639361544B28
:10051C001B68544AA2FB03239B09013BB3F1807F68
:10052C0009D2514A5360514BF02183F82310002318
:10053C00936007231360464AD36943F40013D361D5
:10054C004B4B19684B4A11601B6803F5FA734A4A06
:10055C0013600EE03F4A4FF40051116103F59953BB
:10056C000433444A1360444B1B68414A126893425B
:10057C0012D0404B1B683E4A12689342F3D1354A65
:10058C00D26812F4005FE5D0324A4FF40051516149
:10059C006433384A1360E6E72F4A4FF4E041516167
:1005AC00364A1278364931F812100B4432490B6036
:1005BC00042A43D8DFE802F0030B161E3A002F4B37
:1005CC0001221A70244B4FF480421A61D1E72B4B55
:1005DC0002221A70204B4FF480421A614FF40052E1
:1005EC001A61C6E7254B03221A701B4B4FF480523D
:1005FC001A61BEE7224B9B7A13F0010F0AD1164AFF
:10060C004FF480515161092B09D01D4A937A013363
:10061C009372AEE7104A4FF480511161F3E7174B18
:10062C0004221A70164B02229A72EEE7134B002228
:10063C001A70094B4FF400521A619AE7064A4FF4AC
:10064C00E041116103F51C5310330B4A136090E722
:10065C000010024000100140000C01400008014055
:10066C0014000020D34D621010E000E000ED00E01B
:10067C002C00002030000020380000203400002026
:10068C0018000020024A136801331360704700BF42
:04069C002C0000200E
:1006A000785634120000000000000000010203042C
:1006B0000607080900A24A04E02ED007581BF401DF
:0806C000B80B020032547698D9
:040000050800017D71
:00000001FF
