:020000040800F2
:10000000005000200D01000813010008170100082E
:100010002F010008330100084B0100080000000018
:100020000000000000000000000000006301000864
:1000300067010008000000006B010008410600088D
:100040008102000881020008810200088102000884
:100050008102000881020008810200088102000874
:100060008102000881020008810200088102000864
:100070008102000881020008810200088102000854
:100080008102000881020008810200088102000844
:100090008102000881020008810200088102000834
:1000A0008102000881020008810200088102000824
:1000B0008102000881020008810200088102000814
:1000C0008102000881020008810200088102000804
:1000D00081020008810200088102000881020008F4
:1000E000810200088102000881020008000000006F
:1000F0000000000000000000000000000000000000
:1001000000000000000000005FF808F108B500F0F2
:1001100035F800BEFEE71EF0040F0CBFEFF30880B9
:10012000EFF309807146124A104700BEFEE700BE99
:10013000FEE71EF0040F0CBFEFF30880EFF3098019
:1001400071460C4A104700BEFEE71EF0040F0CBFBC
:10015000EFF30880EFF309807146074A104700BEAD
:10016000FEE700BEFEE700BEFEE700BEFEE770470A
:100170002B010008470100085F01000808B500F0E6
:1001800095F82D4B2D4A13602D4A13602D4B2E4AA6
:1001900003E052F8041B43F8041B2C498B42F8D3AC
:1001A000264B1A682A4B9A4200D0FEE7244B1A6865
:1001B000284B9A42F9D1204B274A1360274A1360F3
:1001C000274B02E0002243F8042B264A9342F9D33E
:1001D000214B1B6813B9214B1B6803B1FEE700F0EC
:1001E00071F8214C214BE41AA410002504E01F4BA8
:1001F00053F8253098470135AC42F8DC1C4C1D4BB8
:10020000E41AA410002504E01A4B53F8253098474F
:100210000135AC42F8DC00F033F9174C174BE41A07
:10022000A41004E0013C154B53F824309847002CEF
:10023000F8DC012000F04AF8BABADECA000000205B
:1002400024000020000000205006000828000020A4
:10025000785634123254769828000020400000204E
:100260002800002044000020AC020008AC02000876
:10027000AC020008AC020008AC020008AC020008A6
:0402800000BEFEE7D7
:100284005006000800000020280000205006000846
:1002940000000000000000002800002044000020AE
:0802A400000000000000000052
:1002AC0008B500F075F8024A024B9A6008BD00BF11
:1002BC000000000800ED00E008B500F091F808BD62
:1002CC00FEE7000082B00023019300932C4A1368D0
:1002DC0043F4803313602A4B1B6803F40033009300
:1002EC00019B01330193009B1BB9019BB3F5A06FDC
:1002FC00F1D1234B1B6813F4003F06D0012300936C
:10030C00009B012B04D002B0704700230093F7E749
:10031C001C4B1A6842F010021A601A6822F007028D
:10032C001A601A6842F004021A60A3F580535A68E6
:10033C005A605A685A605A6842F480625A605A6825
:10034C0022F47C125A605A6842F4E8125A601A6815
:10035C0042F080721A600A4B1B6813F0007FFAD0CF
:10036C00074B5A6822F003025A605A6842F00202A4
:10037C005A60034B5B6803F00C03082BF9D1C2E7FE
:10038C00001002400020024008B5FFF79BFF08BD9B
:10039C0008B5104B1A6842F001021A6059680E4AEF
:1003AC000A405A601A6822F0847222F480321A6071
:1003BC001A6822F480221A605A6822F4FE025A60EB
:1003CC004FF41F029A60FFF7DFFF044B4FF00062FF
:1003DC009A6008BD001002400000FFF800ED00E03C
:1003EC001F4B5B6803F00C03042B15D0082B17D0A4
:1003FC001BB11C4B1C4A1A6002E01A4B1A4A1A60B9
:10040C00174B5B68C3F30313184AD35CDAB2154974
:10041C000B68D3400B607047124B134A1A60EFE71E
:10042C000F4A53685268C3F38343023312F4803F7C
:10043C0005D10F4A02FB03F30A4A1360E0E7084AAE
:10044C00526812F4003F05D0094A02FB03F3054A37
:10045C001360D5E7044A02FB03F3024A1360CFE7AB
:10046C00001002401400002000127A00040000204A
:10047C0000093D00F0214FF6FF754FF6FD745E4A02
:10048C005E4B80B5116098695D4A40F01C00986124
:10049C00106840F011301060D560D4609A695948EA
:1004AC0042F008029A619A69574D42F010029A6123
:1004BC004268564C42F4001242F40052426005610C
:1004CC00DA69534842F40012DA619A6942F4006224
:1004DC009A619A6942F400629A612368A0FB032333
:1004EC009B09013BB3F1807F08D200240720494AC5
:1004FC00494D536085F8231094601060474B484E6B
:10050C001968484D1868484C484A00F5FA702D781F
:10051C00B77A216010601A688A420BD1394AD468C4
:10052C0014F4005F4FF4005419BF6431546101F2AC
:10053C006C7114611A688242EDD14FF4E048382492
:10054C0036F815C0DFF8E8E02D4ACEF81480604488
:10055C001461042D47D8DFE805F03C2D231103006E
:10056C004FF4005E4FF0080C1024314D244AC5F8AE
:10057C0010E0C2F814C000255461CCE74FF480544D
:10058C002B4A17F0010F0CBF546114610824092F7A
:10059C001B4A19BF0137FFB2032704255461BAE780
:1005AC004FF4805C0824224D154AC5F810C0032571
:1005BC005461B0E74FF480454FF4005E4FF0080CE7
:1005CC001B4A0F4C1561C2F810E00225C4F814C088
:1005DC00A1E74FF4804C2024154D094AC5F810C0F2
:1005EC000125546197E74FF4E044114A00F51C5083
:1005FC00103014618FE700BF34000020001002405F
:10060C0000080140001001400000101014000020F0
:10061C00D34D621010E000E000ED00E02C00002053
:10062C001800002038000020300000203C00002082
:10063C00000C0140024A136801331360704700BF7D
:04064C002C0000205E
:10065000785634120000000000000000010203047C
:100660000607080900A24A04E02ED007581BF4012F
:08067000B80B02003254769829
:040000050800017D71
:00000001FF
