:020000040800F2
:10000000005000200D010008110100081301000834
:10001000290100082B010008410100080000000030
:100020000000000000000000000000005701000870
:1000300059010008000000005B010008FD030008F2
:100040001D0200081D0200081D0200081D02000814
:100050001D0200081D0200081D0200081D02000804
:100060001D0200081D0200081D0200081D020008F4
:100070001D0200081D0200081D0200081D020008E4
:100080001D0200081D0200081D0200081D020008D4
:100090001D0200081D0200081D0200081D020008C4
:1000A0001D0200081D0200081D0200081D020008B4
:1000B0001D0200081D0200081D0200081D020008A4
:1000C0001D0200081D0200081D0200081D02000894
:1000D0001D0200081D0200081D0200081D02000884
:1000E0001D0200081D0200081D020008000000009B
:1000F0000000000000000000000000000000000000
:1001000000000000000000005FF808F114480047FC
:10011000FEE71EF0040F0CBFEFF30880EFF3098039
:100120007146104A1047FEE7FEE71EF0040F0CBFB1
:10013000EFF30880EFF3098071460B4A1047FEE7A2
:100140001EF0040F0CBFEFF30880EFF30980714637
:10015000064A1047FEE7FEE7FEE7FEE770470000AD
:1001600071010008270100083F010008550100083F
:1001700008B500F06BF81E4B1E4A1F498B421FD377
:1001800000211E4B1E4A93421FD300F06BF800263D
:100190001C4D1D4C641BA410B44219DC00261B4DE1
:1001A0001B4C641BA410B44217DC00F041FA194D3B
:1001B000194C641BA410002C14DC012000F066F81C
:1001C00052F8040B43F8040BD8E743F8041BDAE7B2
:1001D00055F8043B98470136DEE755F8043B98474D
:1001E0000136E0E7013C55F824309847E3E700BFCB
:1001F00000000020D8070008200000202000002078
:100200006400002048020008480200084802000874
:0E0210004C0200084C0200084C020008FEE7F9
:10022000D80700080000002020000020D8070008A0
:1002300000000000000000002000002064000020FA
:0C0240000000000000000000990700080A
:10024C0008B500F021F8024A024B9A6008BD00BFC5
:10025C000000000800ED00E000F08EB8BFF34F8FF7
:10026C000549064BCA6802F4E0621343CB60BFF346
:10027C004F8F00BFFDE700BF00ED00E00400FA0562
:10028C0008B5FFF7EBFF0000374B82B01A6842F05D
:10029C0001021A605968354A0A405A601A6822F0FD
:1002AC00847222F480321A601A6822F480221A6056
:1002BC005A6822F4FE025A604FF41F029A60002220
:1002CC00009201921A6842F480321A601A6802F4A1
:1002DC0000320192009A01320092019A1AB9009AE6
:1002EC00B2F5A06FF2D11A6812F4003218BF0122D5
:1002FC000192019A012A30D11D4A116841F0100176
:10030C001160116821F007011160116841F00401BE
:10031C0011605A685A605A685A605A6842F480628E
:10032C005A605A6822F47C125A605A6842F4E812F5
:10033C005A601A6842F080721A601A689201FCD5F1
:10034C005A6822F003025A605A6842F002025A605C
:10035C005A6802F00C02082AFAD14FF00062054BE1
:10036C009A6002B0704700BF001002400000FFF816
:10037C000020024000ED00E0114B12495A6802F0D7
:10038C000C02042A01D0082A0AD00F4A0A605B68C2
:10039C000E4AC3F30313D25C0B68D3400B60704757
:1003AC005A685868C2F38342C00302F1020202D4B5
:1003BC0007484243EAE758688003F9D40248F8E753
:1003CC00001002401000002000127A0000000020F3
:1003DC0000093D00002382B001930A235843019B7E
:1003EC00984203D0019B01330193F8E702B07047A8
:1003FC00024A136801331360704700BF4C000020A1
:10040C0010B54FF6FF7000241A4A1B49936943F04C
:10041C001C039361194BA2F58432D060DC60C86078
:10042C00106800F07F401060106840F0661040F4D7
:10043C00CC401060106820F07F4010601068106095
:10044C005A6822F07F6222F470225A605A6842F095
:10045C00087242F400325A601A681C601A681A60FA
:10046C004B6823F470034B604B6843F4C0034B6040
:10047C0010BD00BF0010024000100140000C0140F4
:10048C00094A0A49136809688B420CD10849C868A3
:10049C0010F4005F4FF4005015BF643303F26C731B
:1004AC004861086113607047500000204C00002028
:1004BC0000100140F0B5274B274E1B68D6F800C042
:1004CC009C451BD138224FF4E0442449244B254D44
:1004DC000F7825485C612A6130F81720624432603D
:1004EC00042F31D8DFE807F0030B12172900012283
:1004FC000A704FF480421A6120236B61F0BD022216
:10050C000A704FF4C0421A610823F6E703220A70FE
:10051C004FF48052F7E74FF48054827A12F0010FB7
:10052C000CBF5C611C61092A01BF04230B70022300
:10053C008372837A01338372E6E700220A704FF4E8
:10054C0000521A611823D8E702F51C5210321C61B4
:10055C003260D3E74C000020600000205C000020DB
:10056C00000C01400008014014000020402108B597
:10057C000368024619610520FFF72CFF536980229E
:10058C000A201A61BDE80840FFF724BF70B50822A5
:10059C000446802640256369C8074CBF1E615E6116
:1005AC000520FFF717FF236805201D61FFF712FFD9
:1005BC002368013A12F0FF025D614FEA5101EAD162
:1005CC00BDE870400520FFF705BF80214369024656
:1005DC0010B502201961FFF7FDFE402413680520B9
:1005EC001C61FFF7F7FE136805205C615369BDE8D9
:1005FC0010405961FFF7EEBE8022436910B50446E6
:10060C005A610520FFF7E6FE4022236820465A6116
:10061C00FFF7BCFF2046FFF7D8FF2046FFF7A6FFE9
:10062C0010BD00002DE98848FFF7EAFE4025802127
:10063C004B4C6369226815611961D4E903100843B6
:10064C00116821F070611160116841EA006111605C
:10065C00D4E9082111431A68204622F070421A602E
:10066C001A6842EA01721A608921FFF7C5FF294610
:10067C002046FFF7C1FF3B4B9A6942F400629A6136
:10068C009A6942F400629A614FF47A72364B1B6895
:10069C00B3FBF2F3013BB3F1807F09D2F021334A73
:1006AC005360334B83F823100023936007231360AC
:1006BC00304D314B2A68314E1A602B68304A03F5A5
:1006CC00FA7313602B68DFF8C09003F57A7333600C
:1006DC002B6832689A423ED1B9F80030C3275A1CB5
:1006EC00A9F800200A22DFF87880B3FBF2FB802007
:1006FC0002FB1B336169234A9BB24861052012F847
:10070C0003A0FFF767FE4020216848613946404648
:10071C00FFF73CFF4046FFF758FF51464046FFF7B6
:10072C0035FF013F4046FFF750FFFFB24046FFF751
:10073C001DFFBF2F1FFA8BF34FF00A02D5D1B9F86A
:10074C000030B3F57A7F04BF0023A9F8003033687A
:10075C0003F57A733360FFF793FEFFF7ABFEB7E751
:10076C0020000020001002401000002010E000E0EB
:10077C0000ED00E04C00002050000020580000204C
:10078C0060000020C807000854000020042200204C
:10079C00022110B5074B084CC3E90221C3E904241C
:1007AC00C3E90602C3E9081240F205221A85C3E91F
:1007BC00004010BD20000020000C01403F065B4FA4
:0C07CC00666D7D077F6F777C395E797168
:1007D80000000000000000000102030406070809E9
:1007E80000A24A04E02ED007581BF401B80B0200FF
:04000005080001717D
:00000001FF
