:020000040800F2
:10000000005000200D010008110100081301000834
:10001000290100082B010008410100080000000030
:100020000000000000000000000000005701000870
:1000300059010008000000005B010008A10500084C
:100040001D0200081D0200081D0200081D02000814
:100050001D0200081D0200081D0200081D02000804
:100060001D0200081D0200081D0200081D020008F4
:100070001D0200081D0200081D0200081D020008E4
:100080001D0200081D0200081D0200081D020008D4
:100090001D0200081D0200081D0200081D020008C4
:1000A0001D0200081D0200081D0200081D020008B4
:1000B0001D0200081D0200081D0200081D020008A4
:1000C0001D0200081D0200081D0200081D02000894
:1000D0001D0200081D0200081D0200081D02000884
:1000E0001D0200081D0200081D020008000000009B
:1000F0000000000000000000000000000000000000
:1001000000000000000000005FF808F114480047FC
:10011000FEE71EF0040F0CBFEFF30880EFF3098039
:100120007146104A1047FEE7FEE71EF0040F0CBFB1
:10013000EFF30880EFF3098071460B4A1047FEE7A2
:100140001EF0040F0CBFEFF30880EFF30980714637
:10015000064A1047FEE7FEE7FEE7FEE770470000AD
:1001600071010008270100083F010008550100083F
:1001700008B500F069F81E4B1E4A1F498B421FD379
:1001800000211E4B1E4A93421FD300F069F800263F
:100190001C4D1D4C641BA410B44219DC00261B4DE1
:1001A0001B4C641BA410B44217DC00F017F9194D66
:1001B000194C641BA410002C14DC012000F064F81E
:1001C00052F8040B43F8040BD8E743F8041BDAE7B2
:1001D00055F8043B98470136DEE755F8043B98474D
:1001E0000136E0E7013C55F824309847E3E700BFCB
:1001F00000000020B00500082000002020000020A2
:1002000030000020480200084802000848020008A8
:0E021000480200084802000848020008FEE705
:10022000B00500080000002020000020B0050008F4
:10023000000000000000000020000020300000202E
:080240000000000000000000B6
:1002480008B500F021F8024A024B9A6008BD00BFC9
:100258000000000800ED00E000F08EB8BFF34F8FFB
:100268000549064BCA6802F4E0621343CB60BFF34A
:100278004F8F00BFFDE700BF00ED00E00400FA0566
:1002880008B5FFF7EBFF0000374B82B01A6842F061
:1002980001021A605968354A0A405A601A6822F001
:1002A800847222F480321A601A6822F480221A605A
:1002B8005A6822F4FE025A604FF41F029A60002224
:1002C800009201921A6842F480321A601A6802F4A5
:1002D80000320192009A01320092019A1AB9009AEA
:1002E800B2F5A06FF2D11A6812F4003218BF0122D9
:1002F8000192019A012A30D11D4A116841F010017A
:100308001160116821F007011160116841F00401C2
:1003180011605A685A605A685A605A6842F4806292
:100328005A605A6822F47C125A605A6842F4E812F9
:100338005A601A6842F080721A601A689201FCD5F5
:100348005A6822F003025A605A6842F002025A6060
:100358005A6802F00C02082AFAD14FF00062054BE5
:100368009A6002B0704700BF001002400000FFF81A
:100378000020024000ED00E0114B12495A6802F0DB
:100388000C02042A01D0082A0AD00F4A0A605B68C6
:100398000E4AC3F30313D25C0B68D3400B6070475B
:1003A8005A685868C2F38342C00302F1020202D4B9
:1003B80007484243EAE758688003F9D40248F8E757
:1003C800001002401000002000127A0000000020F7
:1003D80000093D004FF6FF7400252DE98748624863
:1003E80062498369624A43F01C038361614BDC60A4
:1003F800CD60D4601C6804F07F441C601C6844F025
:10040800661444F4CC441C601C6824F07F441C60CF
:100418001C681C604C6824F07F6424F470244C60D1
:100428004C6844F0087444F400344C600C680D6067
:100438000C680C60516821F470015160516841F4F6
:10044800C0015160816941F400618161816941F4B1
:10045800006181614FF47A7047490968B1FBF0F196
:100468000139B1F1807F08D2F02444484160444901
:1004780081F82340072185600160424F42493E6868
:1004880042480E603968DFF8E49001F5FA710160BE
:100498003F484FF4005E857A84464FF4E04A484668
:1004A8004FF008083B4C01972478019FD7F800B01B
:1004B800B3450BD1D2F80CB01BF4005F19BFC2F8DA
:1004C80014E06436C2F810E006F26C76019FD7F8A3
:1004D80000B08B45E9D138273CF814B0C9F814A00E
:1004E80059441F61042C37D8DFE804F0030A131AB3
:1004F8002E004FF48044046120245C610124D4E779
:100508004FF480440461C0F810E00224C3F814805A
:10051800CBE74FF480540461C3F814800324C4E784
:100528004FF4805B15F0010F0CBFC0F814B0C0F891
:1005380010B0092D08BF022505F1010508BF0424E4
:10054800EDB2C3F81480B0E71024C0F810E0C3F887
:1005580014805C610024A8E74FF4E04701F51C51C2
:1005680007611031A1E700BF00100240000C0140F4
:1005780000100140000801401000002010E000E0D9
:1005880000ED00E020000020240000202C000020C6
:100598001400002028000020024A13680133136069
:0805A800704700BF2000002095
:1005B0000000000000000000010203040607080913
:1005C00000A24A04E02ED007581BF401B80B020029
:04000005080001717D
:00000001FF
