:020000040800F2
:10000000005000200D010008110100081301000834
:10001000290100082B010008410100080000000030
:100020000000000000000000000000005701000870
:1000300059010008000000005B0100088D05000860
:100040001D0200081D0200081D0200081D02000814
:100050001D0200081D0200081D0200081D02000804
:100060001D0200081D0200081D0200081D020008F4
:100070001D0200081D0200081D0200081D020008E4
:100080001D0200081D0200081D0200081D020008D4
:100090001D0200081D0200081D0200081D020008C4
:1000A0001D0200081D0200081D0200081D020008B4
:1000B0001D0200081D0200081D0200081D020008A4
:1000C0001D0200081D0200081D0200081D02000894
:1000D0001D0200081D0200081D0200081D02000884
:1000E0001D0200081D0200081D020008000000009B
:1000F0000000000000000000000000000000000000
:1001000000000000000000005FF808F114480047FC
:10011000FEE71EF0040F0CBFEFF30880EFF3098039
:100120007146104A1047FEE7FEE71EF0040F0CBFB1
:10013000EFF30880EFF3098071460B4A1047FEE7A2
:100140001EF0040F0CBFEFF30880EFF30980714637
:10015000064A1047FEE7FEE7FEE7FEE770470000AD
:1001600071010008270100083F010008550100083F
:1001700008B500F069F81E4B1E4A1F498B421FD379
:1001800000211E4B1E4A93421FD300F069F800263F
:100190001C4D1D4C641BA410B44219DC00261B4DE1
:1001A0001B4C641BA410B44217DC00F017F9194D66
:1001B000194C641BA410002C14DC012000F064F81E
:1001C00052F8040B43F8040BD8E743F8041BDAE7B2
:1001D00055F8043B98470136DEE755F8043B98474D
:1001E0000136E0E7013C55F824309847E3E700BFCB
:1001F000000000209C0500082000002020000020B6
:1002000034000020480200084802000848020008A4
:0E021000480200084802000848020008FEE705
:100220009C05000800000020200000209C0500081C
:10023000000000000000000020000020340000202A
:080240000000000000000000B6
:1002480008B500F021F8024A024B9A6008BD00BFC9
:100258000000000800ED00E000F08EB8BFF34F8FFB
:100268000549064BCA6802F4E0621343CB60BFF34A
:100278004F8F00BFFDE700BF00ED00E00400FA0566
:1002880008B5FFF7EBFF0000374B82B01A6842F061
:1002980001021A605968354A0A405A601A6822F001
:1002A800847222F480321A601A6822F480221A605A
:1002B8005A6822F4FE025A604FF41F029A60002224
:1002C800009201921A6842F480321A601A6802F4A5
:1002D80000320192009A01320092019A1AB9009AEA
:1002E800B2F5A06FF2D11A6812F4003218BF0122D9
:1002F8000192019A012A30D11D4A116841F010017A
:100308001160116821F007011160116841F00401C2
:1003180011605A685A605A685A605A6842F4806292
:100328005A605A6822F47C125A605A6842F4E812F9
:100338005A601A6842F080721A601A689201FCD5F5
:100348005A6822F003025A605A6842F002025A6060
:100358005A6802F00C02082AFAD14FF00062054BE5
:100368009A6002B0704700BF001002400000FFF81A
:100378000020024000ED00E0114B12495A6802F0DB
:100388000C02042A01D0082A0AD00F4A0A605B68C6
:100398000E4AC3F30313D25C0B68D3400B6070475B
:1003A8005A685868C2F38342C00302F1020202D4B9
:1003B80007484243EAE758688003F9D40248F8E757
:1003C800001002401000002000127A0000000020F7
:1003D80000093D00F0214FF6FF754FF6FD745A4AAB
:1003E8005A4B2DE9804811609869594A40F01C0021
:1003F8009861106840F011301060D560D4609A6937
:10040800544842F008029A619A69534D42F010022A
:100418009A614268514C42F4001242F40052426020
:100428000561DA694E4842F40012DA619A6942F4C9
:1004380000629A619A6942F400629A612368A0FB9B
:1004480003239B09013BB3F1807F08D200240720D6
:10045800444A454D536085F82310946010604FF46A
:1004680000564FF4E0484FF0380942F2107B3F4BFA
:100478003F4C1968DFF804C1DFF804E118683D4A09
:1004880000F5FA702578CCF800109EF80AA0314CD7
:10049800394FDFF8BCC010601A688A4207D1E26899
:1004A800920447BF66616431266101F26C711A6873
:1004B8008242F1D13EF81520C7F814801044CCF8D8
:1004C8001090042D3BD8DFE805F03229210C0300F9
:1004D800082510223E61CCF81450CCF814200025D1
:1004E800DAE74FF480521AF0010F0CBF7A613A61D3
:1004F8000822BAF1090F19BF0AF1010A5FFA8AFA4C
:100508004FF0030A0425CCF81420C5E74FF48055B2
:1005180008223D61CCF814200325BDE74FF480453F
:1005280008223D613E610225CCF81420B4E74FF45F
:10053800804520223D61CCF814200125ACE7C7F89E
:1005480010805844A8E700BF28000020001002408F
:1005580000080140001001400000101010000020A9
:10056800D34D621010E000E000ED00E02000002014
:100578002C00002030000020000C01402400002046
:1005880014000020024A136801331360704700BF4B
:04059800200000201F
:10059C000000000000000000010203040607080927
:1005AC0000A24A04E02ED007581BF401B80B02003D
:04000005080001717D
:00000001FF
