:020000040800F2
:10000000005000200D010008110100081301000834
:10001000290100082B010008410100080000000030
:100020000000000000000000000000005701000870
:1000300059010008000000005B010008AD04000841
:100040001D0200081D0200081D0200081D02000814
:100050001D0200081D0200081D0200081D02000804
:100060001D0200081D0200081D0200081D020008F4
:100070001D0200081D0200081D0200081D020008E4
:100080001D0200081D0200081D0200081D020008D4
:100090001D0200081D0200081D0200081D020008C4
:1000A0001D0200081D0200081D0200081D020008B4
:1000B0001D0200081D0200081D0200081D020008A4
:1000C0001D0200081D0200081D0200081D02000894
:1000D0001D0200081D0200081D0200081D02000884
:1000E0001D0200081D0200081D020008000000009B
:1000F0000000000000000000000000000000000000
:1001000000000000000000005FF808F114480047FC
:10011000FEE71EF0040F0CBFEFF30880EFF3098039
:100120007146104A1047FEE7FEE71EF0040F0CBFB1
:10013000EFF30880EFF3098071460B4A1047FEE7A2
:100140001EF0040F0CBFEFF30880EFF30980714637
:10015000064A1047FEE7FEE7FEE7FEE770470000AD
:1001600071010008270100083F010008550100083F
:1001700008B500F069F81E4B1E4A1F498B421FD379
:1001800000211E4B1E4A93421FD300F069F800263F
:100190001C4D1D4C641BA410B44219DC00261B4DE1
:1001A0001B4C641BA410B44217DC00F03DFA194D3F
:1001B000194C641BA410002C14DC012000F064F81E
:1001C00052F8040B43F8040BD8E743F8041BDAE7B2
:1001D00055F8043B98470136DEE755F8043B98474D
:1001E0000136E0E7013C55F824309847E3E700BFCB
:1001F000000000207C0800082000002020000020D3
:100200005400002048020008480200084802000884
:0E021000480200084802000848020008FEE705
:100220007C08000800000020200000207C08000856
:10023000000000000000000020000020540000200A
:080240000000000000000000B6
:1002480008B500F021F8024A024B9A6008BD00BFC9
:100258000000000800ED00E000F08EB8BFF34F8FFB
:100268000549064BCA6802F4E0621343CB60BFF34A
:100278004F8F00BFFDE700BF00ED00E00400FA0566
:1002880008B5FFF7EBFF0000374B82B01A6842F061
:1002980001021A605968354A0A405A601A6822F001
:1002A800847222F480321A601A6822F480221A605A
:1002B8005A6822F4FE025A604FF41F029A60002224
:1002C800009201921A6842F480321A601A6802F4A5
:1002D80000320192009A01320092019A1AB9009AEA
:1002E800B2F5A06FF2D11A6812F4003218BF0122D9
:1002F8000192019A012A30D11D4A116841F010017A
:100308001160116821F007011160116841F00401C2
:1003180011605A685A605A685A605A6842F4806292
:100328005A605A6822F47C125A605A6842F4E812F9
:100338005A601A6842F080721A601A689201FCD5F5
:100348005A6822F003025A605A6842F002025A6060
:100358005A6802F00C02082AFAD14FF00062054BE5
:100368009A6002B0704700BF001002400000FFF81A
:100378000020024000ED00E0114B12495A6802F0DB
:100388000C02042A01D0082A0AD00F4A0A605B68C6
:100398000E4AC3F30313D25C0B68D3400B6070475B
:1003A8005A685868C2F38342C00302F1020202D4B9
:1003B80007484243EAE758688003F9D40248F8E757
:1003C800001002401000002000127A0000000020F7
:1003D80000093D0030B504680D4D44F48074046094
:1003E8006C69E407FCD5016141698C07FCD581691A
:1003F800026142691106FCD5036143695A07FCD5BD
:10040800036843F40073036003689B05FCD430BDA4
:100418000054004010B5046844F4807404604469D2
:10042800E407FCD501614469A407FCD5846902612D
:1004380042695207FCD5026842F400720260026801
:100448009405FCD4026842F4807202604269D207C3
:10045800FCD5026841F0010142F48062026001614A
:1004680042699407FCD58269026822F480620260BE
:10047800026842F40062026042695106FCD50269D2
:10048800D2B21A70036843F40073036043695A06D2
:10049800FCD50369029ADBB2137003689B05FCD490
:1004A80010BD0000024A136801331360704700BF93
:1004B8003C00002010B54FF6FF7000241A4A1B4973
:1004C800936943F01C039361194BA2F58432D06001
:1004D800DC60C860106800F07F401060106840F071
:1004E800661040F4CC401060106820F07F40106027
:1004F800106810605A6822F07F6222F470225A60F5
:100508005A6842F0087242F400325A601A681C6055
:100518001A681A604B6823F470034B604B6843F405
:10052800C0034B6010BD00BF001002400010014026
:10053800000C0140094A0A49136809688B420CD12A
:100548000849C86810F4005F4FF4005015BF6433C1
:1005580003F26C7348610861136070474000002023
:100568003C00002000100140F0B5274B274E1B68C7
:10057800D6F800C09C451BD138224FF4E0442449EA
:10058800244B254D0F7825485C612A6130F81720E7
:1005980062443260042F31D8DFE807F0030B1217EA
:1005A800290001220A704FF480421A6120236B61EE
:1005B800F0BD02220A704FF4C0421A610823F6E720
:1005C80003220A704FF48052F7E74FF48054827A7E
:1005D80012F0010F0CBF5C611C61092A01BF0423E2
:1005E8000B7002238372837A01338372E6E7002259
:1005F8000A704FF400521A611823D8E702F51C520A
:1006080010321C613260D3E73C000020500000200B
:100618004C000020000C014000080140140000209C
:1006280083B5FFF747FF854AD36943F40013D361C5
:10063800834B196821F07F411960196841F06E41B8
:100648001960196821F470011960196841F40011E2
:100658001960202119614FF40041A3F5384319604E
:10066800596911B199690029FAD1002018605968AF
:1006780021F03F010904090C5960596841F024012F
:100688005960B421D96126211962196841F0010124
:100698001960936943F400639361936943F40063B9
:1006A80093614FF47A72674B1B68B3FBF2F3013B1B
:1006B800B3F1807F08D2F021634A5360634B83F81B
:1006C8002310072390601360614C624A2368624DCF
:1006D800C83313602368614A03F2EE23136023686A
:1006E8005F4E03F596635F4F2B6023682A689A4232
:1006F80075D13368032B68D8DFE803F09702768753
:10070800594B1A6842F480721A601A465169C80730
:10071800FCD5EE21196151698907FCD59A69BF2278
:100728001A61514B19465A695207FCD51A6842F4A6
:1007380000721A600A689005FCD41A6842F4807244
:100748001A60494B19465A69D207FCD51A6842F40F
:1007580080621A60EF221A614A699007FCD59B698A
:100768000023424A404802EB030C41694906FCD584
:1007780001690133C9B2142B8CF80010F3D1036856
:1007880023F480630360036843F400630360364B1B
:10079800184659694906FCD51969C9B2117519680D
:1007A80041F40071196041694906FCD51B69DBB247
:1007B80053752D4A13689B05FCD40223F422336039
:1007C800EE212E232848FFF705FE3B88B3F57A7FF4
:1007D80004BF00233B802B6803F57A732B60FFF777
:1007E800A9FEFFF7C1FE80E7214BF6220093EE2118
:1007F80001331D48FFF70EFEF423EE211A461A486E
:10080800FFF7E8FD03233360DFE7194BF622009377
:10081800EE2101331448FFF7FDFD2E23F422EE21CB
:100828001148FFF7D7FD0223EDE7B623E022EE21BA
:100838000D48FFF7CFFD0123E5E700BF0010024098
:10084800000C01401000002010E000E000ED00E086
:100858003C000020400000204800002050000020FC
:1008680038000020440000200054004020000020F0
:040878003600002026
:10087C000000000000000000010203040607080944
:10088C0000A24A04E02ED007581BF401B80B02005A
:04000005080001717D
:00000001FF
