:020000040800F2
:10000000005000200D010008110100081301000834
:10001000290100082B010008410100080000000030
:100020000000000000000000000000005701000870
:1000300059010008000000005B010008AD04000841
:100040001D0200081D0200081D0200081D02000814
:100050001D0200081D0200081D0200081D02000804
:100060001D0200081D0200081D0200081D020008F4
:100070001D0200081D0200081D0200081D020008E4
:100080001D0200081D0200081D0200081D020008D4
:100090001D0200081D0200081D0200081D020008C4
:1000A0001D0200081D0200081D0200081D020008B4
:1000B0001D0200081D0200081D0200081D020008A4
:1000C0001D0200081D0200081D0200081D02000894
:1000D0001D0200081D0200081D0200081D02000884
:1000E0001D0200081D0200081D020008000000009B
:1000F0000000000000000000000000000000000000
:1001000000000000000000005FF808F114480047FC
:10011000FEE71EF0040F0CBFEFF30880EFF3098039
:100120007146104A1047FEE7FEE71EF0040F0CBFB1
:10013000EFF30880EFF3098071460B4A1047FEE7A2
:100140001EF0040F0CBFEFF30880EFF30980714637
:10015000064A1047FEE7FEE7FEE7FEE770470000AD
:1001600071010008270100083F010008550100083F
:1001700008B500F069F81E4B1E4A1F498B421FD379
:1001800000211E4B1E4A93421FD300F069F800263F
:100190001C4D1D4C641BA410B44219DC00261B4DE1
:1001A0001B4C641BA410B44217DC00F03DFA194D3F
:1001B000194C641BA410002C14DC012000F064F81E
:1001C00052F8040B43F8040BD8E743F8041BDAE7B2
:1001D00055F8043B98470136DEE755F8043B98474D
:1001E0000136E0E7013C55F824309847E3E700BFCB
:1001F00000000020D408000820000020200000207B
:100200005800002048020008480200084802000880
:0E021000480200084802000848020008FEE705
:10022000D40800080000002020000020D4080008A6
:100230000000000000000000200000205800002006
:080240000000000000000000B6
:1002480008B500F021F8024A024B9A6008BD00BFC9
:100258000000000800ED00E000F08EB8BFF34F8FFB
:100268000549064BCA6802F4E0621343CB60BFF34A
:100278004F8F00BFFDE700BF00ED00E00400FA0566
:1002880008B5FFF7EBFF0000374B82B01A6842F061
:1002980001021A605968354A0A405A601A6822F001
:1002A800847222F480321A601A6822F480221A605A
:1002B8005A6822F4FE025A604FF41F029A60002224
:1002C800009201921A6842F480321A601A6802F4A5
:1002D80000320192009A01320092019A1AB9009AEA
:1002E800B2F5A06FF2D11A6812F4003218BF0122D9
:1002F8000192019A012A30D11D4A116841F010017A
:100308001160116821F007011160116841F00401C2
:1003180011605A685A605A685A605A6842F4806292
:100328005A605A6822F47C125A605A6842F4E812F9
:100338005A601A6842F080721A601A689201FCD5F5
:100348005A6822F003025A605A6842F002025A6060
:100358005A6802F00C02082AFAD14FF00062054BE5
:100368009A6002B0704700BF001002400000FFF81A
:100378000020024000ED00E0114B12495A6802F0DB
:100388000C02042A01D0082A0AD00F4A0A605B68C6
:100398000E4AC3F30313D25C0B68D3400B6070475B
:1003A8005A685868C2F38342C00302F1020202D4B9
:1003B80007484243EAE758688003F9D40248F8E757
:1003C800001002401000002000127A0000000020F7
:1003D80000093D0030B504680D4D44F48074046094
:1003E8006C69E407FCD5016141698C07FCD581691A
:1003F800026142691106FCD5036143695A07FCD5BD
:10040800036843F40073036003689B05FCD430BDA4
:100418000054004010B5046844F4807404604469D2
:10042800E407FCD501614469A407FCD5846902612D
:1004380042695207FCD5026842F400720260026801
:100448009405FCD4026842F4807202604269D207C3
:10045800FCD5026841F0010142F48062026001614A
:1004680042699407FCD58269026822F480620260BE
:10047800026842F40062026042695106FCD50269D2
:10048800D2B21A70036843F40073036043695A06D2
:10049800FCD50369029ADBB2137003689B05FCD490
:1004A80010BD0000024A136801331360704700BF93
:1004B8004000002010B54FF6FF7000241A4A1B496F
:1004C800936943F01C039361194BA2F58432D06001
:1004D800DC60C860106800F07F401060106840F071
:1004E800661040F4CC401060106820F07F40106027
:1004F800106810605A6822F07F6222F470225A60F5
:100508005A6842F0087242F400325A601A681C6055
:100518001A681A604B6823F470034B604B6843F405
:10052800C0034B6010BD00BF001002400010014026
:10053800000C0140094A0A49136809688B420CD12A
:100548000849C86810F4005F4FF4005015BF6433C1
:1005580003F26C734861086113607047440000201F
:100568004000002000100140F0B5274B274E1B68C3
:10057800D6F800C09C451BD138224FF4E0442449EA
:10058800244B254D0F7825485C612A6130F81720E7
:1005980062443260042F31D8DFE807F0030B1217EA
:1005A800290001220A704FF480421A6120236B61EE
:1005B800F0BD02220A704FF4C0421A610823F6E720
:1005C80003220A704FF48052F7E74FF48054827A7E
:1005D80012F0010F0CBF5C611C61092A01BF0423E2
:1005E8000B7002238372837A01338372E6E7002259
:1005F8000A704FF400521A611823D8E702F51C520A
:1006080010321C613260D3E7400000205400002003
:1006180050000020000C0140000801401400002098
:100628002DE9FF41FFF746FF984AD36943F40013C9
:10063800D361974B196821F07F411960196841F01F
:100648006E411960196821F470011960196841F444
:1006580000111960202119614FF40041A3F53843B6
:100668001960596911B199690029FAD100211960F5
:100678005868884C20F03F000004000C5860586807
:1006880040F024005860B420D86126201862186809
:1006980040F0010018606180936943F4006393613E
:1006A800936943F4006393614FF47A727A4B1B6841
:1006B800B3FBF2F3013BB3F1807F08D2F020774A15
:1006C8005360774B83F82300072391601360754DBF
:1006D800754A2B68754EC83313602B68744A03F249
:1006E800EE2313602B68734F03F59663DFF8D88108
:1006F80033602B6832689A4279D13B68032B6AD8F9
:10070800DFE813F0BB0004007A00A9006A4B1A68FE
:1007180042F480721A601A465169C807FCD5EE2166
:10072800196151698907FCD59A69BF221A61624B20
:1007380019465A695007FCD51A6842F400721A60C3
:100748000A689205FCD41A6842F480721A605A4BFF
:1007580019465A69D007FCD51A6842F480621A60B3
:10076800EF221A614A699207FCD500229B69534916
:10077800514B01EB020C58694006FCD5186901324F
:10078800C0B2142A8CF80000F3D11A6822F48062EF
:100798001A601A6842F400621A60474B18465A6990
:1007A8005206FCD51A69D2B20A751A6842F4007268
:1007B8001A6042695206FCD51B693F4ADBB24B7589
:1007C80013689B05FCD40223F4223B60EE212E2300
:1007D8003948FFF7FFFDB8F80030B3F57A7F04BF5A
:1007E8000023A8F80030336803F57A733360FFF705
:1007F800A1FEFFF7B9FE7CE700236380304BF622A9
:100808000093EE21013B2C48FFF704FEF423EE2170
:100818001A462948FFF7DEFD284923684A899A1AAB
:100828008B89534344BF03F5FF437F33B1F902205B
:10083800B1F90010DB131944D20292FBF1F2134410
:1008480013F1080248BF03F1170212110392039B28
:1008580003233B60BFE7002363801A4BF622009313
:10086800EE21013B1448FFF7D5FD2E23F422EE219B
:100878001148FFF7AFFD0223EBE7B623E022EE2194
:100888000D48FFF7A7FD0123E3E700BF0010024072
:10089800000C0140380000201000002010E000E0AB
:1008A80000ED00E040000020440000204C00002043
:1008B800540000203C00002000540040200000208C
:0C08C800390000203A0000204800002009
:1008D40000000000000000000102030406070809EC
:1008E40000A24A04E02ED007581BF401B80B020002
:04000005080001717D
:00000001FF
