:020000040800F2
:10000000005000200D010008110100081301000834
:10001000290100082B010008410100080000000030
:100020000000000000000000000000005701000870
:1000300059010008000000005B0100087905000874
:100040001D0200081D0200081D0200081D02000814
:100050001D0200081D0200081D0200081D02000804
:100060001D0200081D0200081D0200081D020008F4
:100070001D0200081D0200081D0200081D020008E4
:100080001D0200081D0200081D0200081D020008D4
:100090001D0200081D0200081D0200081D020008C4
:1000A0001D0200081D0200081D0200081D020008B4
:1000B0001D0200081D0200081D0200081D020008A4
:1000C0001D0200081D0200081D0200081D02000894
:1000D0001D0200081D0200081D0200081D02000884
:1000E0001D0200081D0200081D020008000000009B
:1000F0000000000000000000000000000000000000
:1001000000000000000000005FF808F114480047FC
:10011000FEE71EF0040F0CBFEFF30880EFF3098039
:100120007146104A1047FEE7FEE71EF0040F0CBFB1
:10013000EFF30880EFF3098071460B4A1047FEE7A2
:100140001EF0040F0CBFEFF30880EFF30980714637
:10015000064A1047FEE7FEE7FEE7FEE770470000AD
:1001600071010008270100083F010008550100083F
:1001700008B500F069F81E4B1E4A1F498B421FD379
:1001800000211E4B1E4A93421FD300F069F800263F
:100190001C4D1D4C641BA410B44219DC00261B4DE1
:1001A0001B4C641BA410B44217DC00F017F9194D66
:1001B000194C641BA410002C14DC012000F064F81E
:1001C00052F8040B43F8040BD8E743F8041BDAE7B2
:1001D00055F8043B98470136DEE755F8043B98474D
:1001E0000136E0E7013C55F824309847E3E700BFCB
:1001F00000000020880500082000002020000020CA
:1002000030000020480200084802000848020008A8
:0E021000480200084802000848020008FEE705
:100220008805000800000020200000208805000844
:10023000000000000000000020000020300000202E
:080240000000000000000000B6
:1002480008B500F021F8024A024B9A6008BD00BFC9
:100258000000000800ED00E000F08EB8BFF34F8FFB
:100268000549064BCA6802F4E0621343CB60BFF34A
:100278004F8F00BFFDE700BF00ED00E00400FA0566
:1002880008B5FFF7EBFF0000374B82B01A6842F061
:1002980001021A605968354A0A405A601A6822F001
:1002A800847222F480321A601A6822F480221A605A
:1002B8005A6822F4FE025A604FF41F029A60002224
:1002C800009201921A6842F480321A601A6802F4A5
:1002D80000320192009A01320092019A1AB9009AEA
:1002E800B2F5A06FF2D11A6812F4003218BF0122D9
:1002F8000192019A012A30D11D4A116841F010017A
:100308001160116821F007011160116841F00401C2
:1003180011605A685A605A685A605A6842F4806292
:100328005A605A6822F47C125A605A6842F4E812F9
:100338005A601A6842F080721A601A689201FCD5F5
:100348005A6822F003025A605A6842F002025A6060
:100358005A6802F00C02082AFAD14FF00062054BE5
:100368009A6002B0704700BF001002400000FFF81A
:100378000020024000ED00E0114B12495A6802F0DB
:100388000C02042A01D0082A0AD00F4A0A605B68C6
:100398000E4AC3F30313D25C0B68D3400B6070475B
:1003A8005A685868C2F38342C00302F1020202D4B9
:1003B80007484243EAE758688003F9D40248F8E757
:1003C800001002401000002000127A0000000020F7
:1003D80000093D002DE987484FF6FF71574A584CF0
:1003E800936943F01C039361564BD960196801F077
:1003F8007F411960196841F0991141F41941196058
:100408004FF6FD71D960616841F4001141F4005163
:1004180061604D492161916941F40061916191697F
:1004280041F4006191614FF47A71484A1268B2FB55
:10043800F1F2013AB2F1807F09D2F02044494A60D2
:10044800444A82F8230000228A6007220A60424F49
:10045800424A3E68424916603A68DFF8109102F550
:10046800FA720A603F494FF4005E8D7A8C464FF469
:10047800E04A49464FF008083B4801970078019F39
:10048800D7F800B0B3450BD1D4F80CB01BF4005F1B
:1004980019BFC4F814E06436C4F810E006F26C76AC
:1004A800019FD7F800B09345E9D138273CF810B040
:1004B800C9F814A05A441F61042837D8DFE800F0AF
:1004C800030A131A2E004FF4804008612020586157
:1004D8000120D4E74FF480400861C1F810E0022001
:1004E800C3F81480CBE74FF480500861C3F8148038
:1004F8000320C4E74FF4805B15F0010F0CBFC1F86F
:1005080014B0C1F810B0092D08BF022505F1010586
:1005180008BF0420EDB2C3F81480B0E71020C1F87A
:1005280010E0C3F8148058610020A8E74FF4E047B2
:1005380002F51C520F611032A1E700BF0010024003
:1005480000100140000801400000101010000020B9
:1005580010E000E000ED00E0200000202400002072
:100568002C0000201400002028000020000C01406E
:10057800024A136801331360704700BF200000204F
:10058800000000000000000001020304060708093B
:1005980000A24A04E02ED007581BF401B80B020051
:04000005080001717D
:00000001FF
