:020000040800F2
:10000000005000200D010008110100081301000834
:10001000290100082B010008410100080000000030
:100020000000000000000000000000005701000870
:1000300059010008000000005B010008A505000848
:100040001D0200081D0200081D0200081D02000814
:100050001D0200081D0200081D0200081D02000804
:100060001D0200081D0200081D0200081D020008F4
:100070001D0200081D0200081D0200081D020008E4
:100080001D0200081D0200081D0200081D020008D4
:100090001D0200081D0200081D0200081D020008C4
:1000A0001D0200081D0200081D0200081D020008B4
:1000B0001D0200081D0200081D0200081D020008A4
:1000C0001D0200081D0200081D0200081D02000894
:1000D0001D0200081D0200081D0200081D02000884
:1000E0001D0200081D0200081D020008000000009B
:1000F0000000000000000000000000000000000000
:1001000000000000000000005FF808F114480047FC
:10011000FEE71EF0040F0CBFEFF30880EFF3098039
:100120007146104A1047FEE7FEE71EF0040F0CBFB1
:10013000EFF30880EFF3098071460B4A1047FEE7A2
:100140001EF0040F0CBFEFF30880EFF30980714637
:10015000064A1047FEE7FEE7FEE7FEE770470000AD
:1001600071010008270100083F010008550100083F
:1001700008B500F069F81E4B1E4A1F498B421FD379
:1001800000211E4B1E4A93421FD300F069F800263F
:100190001C4D1D4C641BA410B44219DC00261B4DE1
:1001A0001B4C641BA410B44217DC00F017F9194D66
:1001B000194C641BA410002C14DC012000F064F81E
:1001C00052F8040B43F8040BD8E743F8041BDAE7B2
:1001D00055F8043B98470136DEE755F8043B98474D
:1001E0000136E0E7013C55F824309847E3E700BFCB
:1001F00000000020B405000820000020200000209E
:1002000030000020480200084802000848020008A8
:0E021000480200084802000848020008FEE705
:10022000B40500080000002020000020B4050008EC
:10023000000000000000000020000020300000202E
:080240000000000000000000B6
:1002480008B500F021F8024A024B9A6008BD00BFC9
:100258000000000800ED00E000F08EB8BFF34F8FFB
:100268000549064BCA6802F4E0621343CB60BFF34A
:100278004F8F00BFFDE700BF00ED00E00400FA0566
:1002880008B5FFF7EBFF0000374B82B01A6842F061
:1002980001021A605968354A0A405A601A6822F001
:1002A800847222F480321A601A6822F480221A605A
:1002B8005A6822F4FE025A604FF41F029A60002224
:1002C800009201921A6842F480321A601A6802F4A5
:1002D80000320192009A01320092019A1AB9009AEA
:1002E800B2F5A06FF2D11A6812F4003218BF0122D9
:1002F8000192019A012A30D11D4A116841F010017A
:100308001160116821F007011160116841F00401C2
:1003180011605A685A605A685A605A6842F4806292
:100328005A605A6822F47C125A605A6842F4E812F9
:100338005A601A6842F080721A601A689201FCD5F5
:100348005A6822F003025A605A6842F002025A6060
:100358005A6802F00C02082AFAD14FF00062054BE5
:100368009A6002B0704700BF001002400000FFF81A
:100378000020024000ED00E0114B12495A6802F0DB
:100388000C02042A01D0082A0AD00F4A0A605B68C6
:100398000E4AC3F30313D25C0B68D3400B6070475B
:1003A8005A685868C2F38342C00302F1020202D4B9
:1003B80007484243EAE758688003F9D40248F8E757
:1003C800001002401000002000127A0000000020F7
:1003D80000093D002DE987484FF4005063498B69B7
:1003E80043F010038B61624B18615A6842F4A00213
:1003F8005A6058618A6942F008028A615D4A546805
:1004080024F470245460546844F4003454605468EC
:1004180024F470045460546844F40014546054681C
:1004280024F070645460546844F0007454604FF4CD
:100438008054146110614FF48040012410618A696E
:1004480042F004028A614C4A1461106840F00500C9
:100458001060546108241461106840F4A0401060D2
:100468004FF47A7054618A6942F400628A618A6939
:1004780042F400628A61414A1268B2FBF0F2013A22
:10048800B2F1807F09D2F0243D4842603D4A82F8AB
:1004980023400022826007220260CA693A4E42F471
:1004A8000012CA613568394A394915603268DFF87F
:1004B800C4E002F5FA720A6036494FF4005C087825
:1004C80041F2243B4FF4E048714642F2107A324F31
:1004D800BC7A0197D6F80090A9450AD1D3F80C90B8
:1004E80019F4005F19BFC3F814C06435C3F810C00D
:1004F8005D44D6F800909145ECD1019FCEF8148068
:1005080037F810904A4404282BD8DFE800F0030895
:100518000F1426004FF4804008610120DAE74FF4F9
:1005280080400861C1F810C00220D3E74FF4805022
:1005380008610320CEE74FF4805914F0010F0CBF77
:10054800C1F81490C1F81090092C08BF022404F1D6
:10055800010408BF0420E4B2BCE7C1F810C00020C1
:10056800B8E74FF4E04752440F61B3E70010024088
:1005780000100140000C014000080140100000205C
:1005880010E000E000ED00E0200000202400002042
:100598002C0000202800002014000020024A1368C4
:0C05A80001331360704700BF20000020EA
:1005B400000000000000000001020304060708090F
:1005C40000A24A04E02ED007581BF401B80B020025
:04000005080001717D
:00000001FF
